:020000040800F2
:10000000283F00209D010008212F0008FD26000840
:100010007D2E0008B50A000899390008000000008C
:1000200000000000000000000000000005010008C2
:10003000B70A00080000000049010008D532000896
:10004000B7010008B7010008B7010008B7010008B0
:10005000B7010008B7010008B7010008750B0008D8
:10006000B7010008B7010008B7010008B701000890
:10007000B7010008B7010008B7010008B701000880
:10008000B7010008B7010008B7010008B701000870
:10009000B7010008B7010008B70100087B0B000892
:1000A000B701000851330008B7010008B701000884
:1000B000B7010008B70100085D330008B701000868
:1000C000B7010008B7010008B7010008B701000830
:1000D000B7010008B7010008B70100088D39000812
:1000E000B7010008B7010008B7010008DFF810D019
:1000F00000F052FC0048004745460008AFF300807E
:10010000283F0020224B19680868B0E8F00F80F300
:100110000988BFF36F8F4FF0000080F311884EF015
:100120000D0E70470000000006480068006880F36C
:10013000088862B661B6BFF34F8FBFF36F8F00DFE1
:1001400000BF00BF08ED00E0EFF30980BFF36F8F41
:100150000F4B1A6820E9F00F106008B54FF05000FF
:1001600080F31188BFF34F8FBFF36F8F05F0E4FB6F
:100170004FF0000080F31188BDE808401968086856
:10018000B0E8F00F80F30988BFF36F8F704700BFAE
:1001900078000020EFF30580704700000648804794
:1001A00006480047FEE7FEE7FEE7FEE7FEE7FEE75C
:1001B000FEE7FEE7FEE7FEE74D330008ED0000082E
:1001C000202A04DB203A21FA02F00021704721FAAC
:1001D00002F3D040C2F12002914008431946704713
:1001E00040EA01039B0703D009E008C9121F08C0B9
:1001F000042AFAD203E011F8013B00F8013B521E39
:10020000F9D27047D2B201E000F8012B491EFBD2AF
:1002100070470022F6E710B513460A460446194611
:10022000FFF7F0FF204610BD30B50446002003461E
:1002300000E05B1C934203D2E05CCD5C401BF8D035
:1002400030BDF0B480EA0102D40F4200B2EB410F9E
:1002500002D20246084611464A0042D0C30DDDB222
:10026000C1F3C752AD1A202D35DAC1F3160141F49E
:10027000000204B15242C5F1200602FA06F12A41F9
:100280001044B3EBD05F23D0C4B1012DA0EBC35019
:1002900009DCF0BC4FF0004202EAC352DBB200F5C9
:1002A000000000F0D6BA400000F1807000EBC350AF
:1002B000A0F1807040EAD170490009E0490841EAA4
:1002C000C071A0EBC35000F50000400800EBC35024
:1002D000F0BC00F0B5BA6142012202EB4101001B03
:1002E000F6E7F0BC704781F00041AAE780F00040DB
:1002F000A7E780EA010210B502F00043400022D0D7
:100300004A001FD0010E01EB1261C0F35600C2F388
:10031000560240F4000042F40002A0FB0220000458
:100320007F39140400D0401C50EA124001D4400030
:10033000491EC2B20C0604EBD010401C4008802AB3
:1003400002D003E0002010BD20F00100002900DAF7
:100350000020184310BD30B480EA010202F00045CD
:1003600030F0004221F0004013D090B1C30DD40D05
:10037000C2F31601C0F31600E41A41F4000140F480
:1003800000027D34914201D3641C00E04900002C3E
:1003900002DA30BC002070474FF400000023914285
:1003A00001D3891A034340084FEA4101F7D151B103
:1003B000914202D14FF0004105E002D24FF001011D
:1003C00001E06FF0010103EBC450284430BC00F0A1
:1003D00037BA420005D0C0F3C7525242914201DC05
:1003E0000020704700EBC15070472DE9FE4F80465A
:1003F00081EA0300C00F0C46009021F0004123F079
:100400000045B8EB0200A94105D24046214690467E
:100410001C460B46024623F00040104347D0270DF0
:10042000C7F30A00C3F30A510290401A0190402812
:100430006BDAC3F3130040F4801B0098924620B19E
:100440000023D2EB030A63EB0B0B01985946C0F172
:100450004002504600F0D3F906460D465046594634
:10046000019A00F0DBF910EB08006141002487EAF3
:10047000115284EAE7731A4340D0009A62B3019A9A
:10048000012A4FEA075215DC001B61EB02014FF015
:10049000004202EA0752CDE90042001C41F58011FA
:1004A00032462B4600F012FA03B0BDE8F08F40460A
:1004B0002146F9E7001B61EB0201001C41F58013A6
:1004C00000185B412018A2F5001747EB030140EA32
:1004D000D570B6196D4111E06D084FEA360645EA50
:1004E000C0754FEA0752001B61EB0201001C41F589
:1004F000801149084FEA30000019514132462B461D
:1005000003B0BDE8F04F00F0D2B9009801224000DE
:100510000023D0EB020263EBE073009821464FEA20
:10052000E074B8EB000061EB0401E9E783F00043FD
:100530005BE781F0004158E72DE9FE4F81EA0304B3
:1005400004F0004421F0004100944FF0000B23F030
:10055000004350EA01045ED052EA03045BD0C3F3C7
:100560000A54C1F30A552C44A4F2F3340194A0FBBD
:100570000254C1F3130141F48011C3F3130343F494
:10058000801301FB024400FB034E840A970A44EAED
:10059000815447EA8357A4FB076802958D0A05FB3F
:1005A00007854FEA932C04FB0C542705029D4FEA64
:1005B000065847EA1637B5EB08056EEB070C870EB1
:1005C000920E47EA811742EA8312A7FB0201B6EBBB
:1005D0000B0164EB00042B0D43EA0C335E1844EB73
:1005E0001C50DA465146E7FB0201C5F313044FEAFB
:1005F0000B3343EA14534FEA0432019C43EA0603E7
:10060000A4F10C040294009CCDE900B400F05EF962
:1006100003B0BDE8F08F00200146F9E72DE9F04D69
:1006200081EA030404F0004B21F0004514464FF02A
:10063000000A23F0004150EA050220D054EA0102EA
:100640001DD0C5F30A570246C5F31303C1F31300C7
:10065000C1F30A5640F4801543F48013A7EB060853
:10066000101BD64608F2FD3873EB050002D308F1E3
:10067000010801E092185B41B8F1000F03DA002095
:100680000146BDE8F08D00204FF4801106468446F7
:100690000EE0171B73EB050705D3121B63EB050375
:1006A00006434CEA010C49084FEA300092185B41BE
:1006B00050EA0107EDD152EA030012D082EA0400A9
:1006C00083EA0501084305D0101BAB4106D2012285
:1006D000002306E000224FF0004302E06FF0010229
:1006E00053101AEB06004CEB085110EB0A0041EBDB
:1006F0000B01BDE8F04D00F0DAB8C10F80EAE07000
:100700000844CA079623002100F0A3B896230022CC
:10071000114600F09EB820F00040C10DC0F3160055
:1007200040F400007F2901DA00207047962903DC9D
:10073000C1F19601C8407047963988407047000063
:1007400030B5041E71F1000404DB4FF00044404258
:1007500064EB0101141E73F1000405DB1C464FF02D
:100760000043524263EB0403994208BF904230BDFC
:1007700030B50B46014600202022012409E021FA71
:1007800002F59D4205D303FA02F5491B04FA02F56E
:100790002844151EA2F10102F1DC30BD2DE9F05F05
:1007A0000546002092469B468846064681464024E0
:1007B0001BE02846414647462246FFF701FD5346C7
:1007C0005A46C01A914110D311461846224600F0ED
:1007D00016F82D1A67EB01084F462246012000212A
:1007E00000F00DF817EB00094E41201EA4F10104A2
:1007F000DFDC484631462A464346BDE8F09F202AC2
:1008000004DB203A00FA02F1002070479140C2F167
:10081000200320FA03F3194390407047202A06DB97
:10082000CB17203A41FA02F043EAE07306E041FABE
:1008300002F3D040C2F120029140084319467047AC
:100840000029A8BF7047401C490008BF20F00100E4
:10085000704710B4B0FA80FC00FA0CF050EA0104C2
:1008600004BF10BC704749B1CCF1200421FA04F454
:1008700011FA0CF118BF012121430843A3EB0C012D
:10088000CB1D4FEA00614FEA102042BF002010BC90
:10089000704700EBC35010440029A4BF10BC704740
:1008A000401C490008BF20F0010010BC704710B583
:1008B000141E73F1000408DA401C41F10001921883
:1008C0005B411A4301D120F0010010BD2DE9F04D2C
:1008D00092469B4611B1B1FA81F202E0B0FA80F281
:1008E00020329046FFF78BFF04460F4640EA0A008D
:1008F00041EA0B0153465A46084313D0114653EAC6
:10090000010019D0C8F140025046FFF759FC0546D6
:100910000E46504659464246FFF771FF084305D040
:10092000012004E020463946BDE8F08D0020054353
:1009300046EAE0762C4337430A986305E40AA0EBC5
:1009400008000022FD0A44EA47540A3002D500207C
:100950000146E9E7010510196941DDE9084500197B
:100960006941BDE8F04DA2E7C1F30A52C1F313019A
:1009700040F2FF3341F480119A4202DA002001462E
:10098000704740F233439A42A2F2334202DC5242B1
:10099000FFF716BCFFF733BF064C074D06E0E068D3
:1009A00040F0010394E8070098471034AC42F6D3B6
:1009B000FFF7A0FB4474000864740008014601A01E
:1009C00002F0F6BF4155443A2025730A00000000AA
:1009D00092B044216846FFF71CFC0A4D6C464FF06C
:1009E000FF364FF47A7732466946286805F02EFBC9
:1009F000BDF800103A46A01C03F030FD684603F035
:100A0000BDFEF0E7300000201CB50022422102208C
:100A100005F026F90F49086098B10F4803F018FD5A
:100A2000012240210D4803F067FC00210320CDE99D
:100A300000010B464FF4807209A10C4805F098FCA8
:100A40001CBD502080F31188BFF34F8FBFF36F8F11
:100A5000FEE70000300000209D4200080003002057
:100A6000617564696F207461736B0000D1090008BF
:100A70004FF4FA7403F07AFC204604F0B9FD03F059
:100A800075FC204604F0B4FDF4E700001CB500211D
:100A90000320CDE900010B46802202A1044805F0A5
:100AA00067FC1CBD626C696E6B696E6700000000BC
:100AB000710A0008FEE7704708B500240B4D0626B2
:100AC00042F2107755F824003C2300901A46022188
:100AD000202002F0D3FA02F02FFB641CB4FBF6F0E6
:100AE00006FB1044384604F083FDEBE73400002099
:100AF0001CB502F0ABFA08B902F056FA0021042046
:100B0000CDE900010B46820102A1064805F030FC48
:100B10001CBD0000646973706C6179207461736B33
:100B200000000000B90A000808B50C4C4FF0FF3572
:100B30004FF4FA76002300951A460121606804F00C
:100B4000A1FFC00707D0A16805A002F031FF304621
:100B500004F04EFDEEE76420FAE700004C000020B0
:100B600044697374616E63653A20257520636D0A6C
:100B700000000000022000F02DB9202000F02AB96A
:100B800072B6FEE708B50B4C4FF0FF350023009519
:100B90001A460121606804F075FFC00707D0A068FD
:100BA000642003F07BFC1E2004F022FDEEE76420AD
:100BB000FAE700004C0000207CB504F00FFF12495A
:100BC0004860C0B103F01EFC104803F061FC002433
:100BD0000325CDE9005423464FF480720CA1104840
:100BE00005F0C6FBCDE90054002380220DA1114879
:100BF00005F0BEFB7CBD502080F31188BFF34F8F02
:100C0000BFF36F8FFEE700004C000020D1520008B8
:100C1000666F6C6C6F77696E675F7461736B0000F1
:100C2000850B00086469735F64656275675F746152
:100C3000736B0000290B0008014601A002F0B8BE4A
:100C40004745533A2025730A00000000204603F070
:100C500069FE094D4FF0FF363146286805F092FADB
:100C600004F0EEFB02F093FA044604F009FC20467F
:100C700003F058FEF0E70000580000201CB50322E6
:100C80000021012004F0ECFF0E49086090B102F051
:100C900089FA0D4803F046FB02F079FA002105209D
:100CA000CDE900010B464FF4807208A10B4805F016
:100CB0005FFB1CBD502080F31188BFF34F8FBFF343
:100CC0006F8FFEE7580000201146000867657374B7
:100CD0007572655F7461736B000000004D0C000855
:100CE00010B590F821100022022905D0042181635B
:100CF00080F82020012010BD01680B6823F00E034E
:100D00000B6001680B6823F001030B6090F8403022
:100D1000C46B012101FA03F3636080F8211080F8AD
:100D20002020104610BD000010B590F821100024BE
:100D3000022903D00421816301243DE001680A688F
:100D400022F00E020A6001680A6822F001020A60BD
:100D50001A4A0168914201D1012121E0174A143257
:100D6000914201D110211BE0144A2832914201D155
:100D7000891515E0114A3C32914201D189140FE0E6
:100D80000E4A5032914202D14FF4803108E00B4AB2
:100D90006432914202D14FF4801101E04FF0807132
:100DA000064A083A5160012180F82110002180F89C
:100DB0002010416B01B18847204610BD0800024059
:100DC000022803D0202803D103F0A4BA03F04EBBBD
:100DD00070470000044910B50A68024202D008605A
:100DE000FFF7EEFF10BD0000140401402DE9F84F9D
:100DF000DFF8B8910024A9F1040B23460F2709F16D
:100E0000040AABF1040EC9E00125A5402A40AA421C
:100E10007DD1674ED1F804C0ACEB0608B44532D0A2
:100E200014DCBCF1030F3AD009DCBCF1000F2AD06E
:100E3000BCF1010F1CD0BCF1020F31D11DE0BCF19F
:100E4000110F17D0BCF1120F2AD119E0B8F5881F85
:100E500019D006DCB8F5803F15D0B8F5801F1FD13A
:100E600011E0B8F5001F0ED0B8F5041F18D10AE044
:100E7000CB6815E0CB681B1D12E0CB6808330FE090
:100E8000CB680C330CE08B682BB1012B4FF00803BF
:100E900003D0456104E0042302E0056100E0002383
:100EA000FF2A01D8064601E000F104064FEA840556
:100EB00001D9A5F12005D6F8008007FA05FC28EA3B
:100EC0000C0803FA05F548EA0508C6F800804D68E5
:100ED000ED0062D5374DAE6946F00106AE61AD69F1
:100EE00024F0030605F001050095334D06EB050CD3
:100EF000DCF80850A607360F07FA06F825EA0805B9
:100F0000DFF8B880404503D14FF0000817E044E017
:100F1000DFF8AC80404502D14FF001080FE0DFF868
:100F2000A480404502D14FF0020808E0DFF8988025
:100F3000404502D14FF0030801E04FF0040808FAE1
:100F400006F848EA0508CCF808804D68D9F8006032
:100F5000ED024D4601D5164300E096432E604D68E4
:100F6000DAF80060AD02554601D5164300E096431D
:100F70002E604D68DBF80060AD035D4601D5164379
:100F800000E096432E604D68DEF80060ED03754684
:100F900001D5164300E096432E60641C0D682A4676
:100FA000E5407FF431AFBDE8F88F00000804014050
:100FB0000000111000100240000001400008014034
:100FC000000C0140001001400014014080680840FE
:100FD00000D001207047C26821EA02030A4043EAB8
:100FE0000241016170470AB1016170470904FBE7E2
:100FF00001488068704700000400002070B50400BC
:1010000025D094F83D00002520B984F83C502046B6
:1010100000F07EFA242084F83D002068016821F069
:10102000010101602068016841F40041016020680D
:10103000016821F40041016000F012FC4D4A616832
:10104000914201D84C4900E04C49884201D201202C
:1010500070BD4B492368B0FBF1F15E6826F03F0696
:101060000E435E606368934206D94FF4967359430A
:101070004FF47A73B1FBF3F12368491C1E6A26F022
:101080003F06314319626168914210D84900401E01
:10109000B0FBF1F2521CC2F30B02042A01D204206D
:1010A00022E0B0FBF1F0401CC0F30B001CE0A26892
:1010B000F2B301EBC10303EB0116431EB3FBF6F3DE
:1010C0005B1C43F480431B0549D092B301EBC10282
:1010D00002EB0111401EB0FBF1F0401CC0F30B000D
:1010E00040F4804040F400402168CA694CF6FF7328
:1010F0009A431043C861D4E907100143206802688D
:1011000022F0C00211430160D4E9030101432068C9
:10111000826848F2FF339A4311438160D4E90501A4
:1011200008432168CA6822F0FF021043C86001E04A
:101130000EE016E02068016841F0010101602564BD
:10114000202084F83D00256384F83E50002070BDC7
:1011500001EB4106431EB3FBF6F35B1CB3E7012032
:10116000C2E701EB4101401EB0FBF1F0401CC0F3AF
:101170000B00B7E7A086010080841E0000093D0037
:1011800040420F002DE9FF4F83B00025DDE91079C3
:101190009A4693460446DDF848800095FFF728FFFD
:1011A000064694F83D0020287CD119230122884965
:1011B0002046009601F0B8FB0028F5D194F83C00D9
:1011C00001286FD0012084F83C0020680168C9071D
:1011D00003D1016841F0010101602068016821F438
:1011E00000610160222084F83D00402084F83E0028
:1011F00025646762A4F82A90608D20857548E062B6
:10120000CDE9008653465A462046049901F08EFAED
:1012100000287CD1208DDFF8C091202768B10128FB
:1012200014D00228206801681ED041F4806101605A
:101230002068416980690090BCE02068416981694B
:101240000091016841F400710160B3E02068016819
:1012500021F48061016072B6206841698169009162
:10126000016841F400710AE041F40061016072B666
:101270002068416981690091016821F48061016001
:1012800062B697E0032865D801280CD002284346AF
:101290004FF000024946204600960BD001F044FB77
:1012A000A8BB0CE091E032464146204601F0E2FB4B
:1012B00068BB72E001F038FB48BB72B633E02068CF
:1012C000016821F48061016072B620680069616A7A
:1012D0000870606A401C6062208D401E2085608D11
:1012E000401E60853D4846F2A8110068B0FBF1F051
:1012F000C0EBC00000EB80000090401E009007D0C3
:1013000020684069C04340070DD50098F5E727E005
:1013100044F8305F6773A573206940F020002061B6
:1013200062B625731CE02068016841F40071016019
:1013300020680069616A0870606A401C6062218DE3
:10134000491E2185618D491E618562B62168096942
:10135000017026E032464146204601F08BFB18B171
:10136000012007B0BDE8F08F20680069616A08704D
:10137000606A401C6062208D401E81B22185608DB4
:10138000401E608520684269D243520712D4032967
:1013900003D1016821F48061016020680069616AFD
:1013A0000870606A401C6062208D401E2085608D40
:1013B000401E6085208D00287FF464AF84F83D7066
:1013C00084F83E5084F83C50CBE70220C9E7000087
:1013D000020010000000FFFF0400010010000020C8
:1013E0002DE9FF4F83B09A46DDE9119793460446F5
:1013F000DDF84080FFF7FCFD054694F83D0020280D
:101400007FD11923012240492046009501F08CFA32
:10141000002876D194F83C00012872D0012084F88D
:101420003C0020680168C90703D1016841F001014F
:1014300001602068016821F400610160212084F8C6
:101440003D00402084F83E0000262664C4F8248035
:10145000A4F82A90608D20852C48E062CDE90075C3
:1014600053465A462046049901F0DEF970B930E03F
:101470002A463946204601F035FB58B1206C042835
:1014800004D12068016841F400710160012007B0B7
:10149000BDE8F08F606A216800780861606A401CCE
:1014A0006062218D491E89B22185628D521E62853E
:1014B00022685369DB435B070BD469B10078106184
:1014C000606A401C6062208D401E2085608D401E39
:1014D0006085208D0028CBD12A463946204601F070
:1014E000F7F90028CAD154F83D0B016841F40071A6
:1014F0000160202004F81E09E67766770020C6E721
:10150000FFE70220C3E70000020010000000FFFF19
:1015100010B586B0002100910191029103910068FD
:101520000F4988421AD10F4CA06940F00800A06111
:10153000A069694600F008000490C02000901220C5
:101540000190032003900848FFF750FCE06940F445
:101550000010E061E06900F40010049006B010BDD6
:101560000054004000100240000C01400248816815
:10157000027811448160704704000020074810B5CC
:10158000016841F010010160032000F0A1F80F2074
:1015900000F006F800F04AF8002010BD00200240DC
:1015A00030B505461C4887B0816941F4006181610E
:1015B000806906A900F40060009001A800F030F9ED
:1015C00000F05EF91549164AB0FBF1F11548491EC5
:1015D0000260416040F2E7320021C0E903218160EE
:1015E000816100F049FB040012D10E4800F090FB2D
:1015F00004000DD1192000F03DF8102D07D2002273
:101600002946192000F044F80748056000E001244D
:1016100007B0204630BD00000010024040420F00DD
:10162000002C0140B8020020080000200F4808B537
:10163000816941F001018161816901F0010100913D
:10164000C16941F08051C161C069002200F0805041
:1016500000900F21901E00F01BF80548416821F012
:10166000E06141F00071416008BD000000100240DF
:1016700000000140002809DB00F01F020121914019
:101680004009800000F1E020C0F800117047000020
:10169000F0B40E4B1B680C46C3F30223C3F10705DD
:1016A000042D00D90425191D072901D2002300E0CB
:1016B000DB1E012606FA05F1491E214099409E4095
:1016C000761E16403143F0BC02F082B90CED00E00A
:1016D000064900F0070208684FF6FF03184040EA89
:1016E0000220034A10430860704700000CED00E040
:1016F0000000FA052DE9F0470F46050061D0434E82
:10170000306800F00700B84209D2306820F00700C6
:1017100038433060306800F00700B84251D1286883
:101720003B4C810712D5400703D5606840F4E06068
:1017300060602878000703D5606840F460506060FE
:101740006068A96820F0F000084360602878C0074E
:1017500028D06868012810D02168022810D0890795
:1017600000292EDA616821F0030101436160FFF76F
:101770003FFC804641F288390DE021688903EFE79C
:101780008901EDE7FFF734FCA0EB0801494502D9D8
:101790000320BDE8F0876068696800F00C00B0EBDA
:1017A000810FEFD1306800F00700B8420BD93068E4
:1017B00020F0070038433060306800F00700B8427E
:1017C00001D00120E5E72878400705D56068E96881
:1017D00020F4E060084360602878000706D5606860
:1017E000296920F4605040EAC100606000F058F8B8
:1017F0006168084AC1F30311515CC840064908609A
:1018000006480068FFF7CCFE0020C2E70020024037
:10181000001002403A680008100000200800002074
:101820000F2202600C4A536803F0030343605368BD
:1018300003F0F0038360536803F4E063C36052680D
:101840004FF4E06303EAD20202610448006800F04A
:1018500007000860704700000010024000200240AE
:101860000448054900684968044AC1F30221515CF3
:10187000C840704710000020001002404A6800086D
:101880000448054900684968044AC1F3C221515C13
:10189000C840704710000020001002404A6800084D
:1018A0000E4A51680E4801F00C03042B11D0082B8E
:1018B0000FD10C48C1F38343C903C05C0AD55168FA
:1018C000084AC1F34041921E515C054A5043B0FBA7
:1018D000F1F070470449484370470000001002408F
:1018E00000127A002A68000800093D002DE9F84F2F
:1018F000040070D02078C04DC00749D06868C0F39C
:101900008100012807D06868C0F38100022809D14E
:101910006868C00306D52868800339D56068002848
:10192000E7D035E06068B0F5803F0BD010B1B0F57E
:10193000A02F11D0286820F480302860286820F477
:10194000802002E0286840F480302860606890B110
:10195000FFF74EFB06460AE0286840F48020286026
:10196000F0E700BFFFF744FB801B642873D82868AA
:101970008003F7D50CE0FFF73BFB064605E000BF10
:10198000FFF736FB801B6428F0D828688003F7D463
:1019900020789A4E80074FF001094FF0000839D5A2
:1019A000686810F00C0F07D06868C0F38100022847
:1019B00009D16868C00306D42868800714D5206957
:1019C000012808D110E02069B0B1C6F80090FFF7F7
:1019D0000FFB074605E00AE1FFF70AFBC01B0228E0
:1019E000C4D828688007F7D52868616920F0F80016
:1019F00040EAC10028600DE0C6F80080FFF7F8FA61
:101A0000074604E0FFF7F4FAC01B022823D8286831
:101A10008007F7D4207800072CD57948A169D9B17F
:101A2000C0F80090FFF7E4FA074604E0FFF7E0FA99
:101A3000C01B02280FD8686A8007F7D571484FF499
:101A4000FA510068B0FBF1F0009000BF0098411E11
:101A50000091FAD20EE080E0C0F80080FFF7C8FAEB
:101A6000074604E0FFF7C4FAC01B022875D8686A6D
:101A70008007F7D42078400760D5E8690027C000C8
:101A800008D4E86940F08050E861E869012700F077
:101A9000805000905C480168C90513D401688346F2
:101AA00041F480710160FFF7A3FA824606E000BFAF
:101AB000FFF79EFAA0EB0A0064284ED8DBF800007E
:101AC000C005F5D5E06801280AD008B1052813D073
:101AD000286A20F001002862286A20F0040002E051
:101AE000286A40F001002862E06841F2883B98B122
:101AF000FFF77EFA82460BE0286A40F00400286275
:101B0000EEE700BFFFF774FAA0EB0A0159455AD877
:101B1000286A8007F6D50CE0FFF76AFA824605E0EE
:101B2000FFF766FAA0EB0A0159454CD8286A8007EE
:101B3000F6D41FB1E86920F08050E861E06988B30D
:101B40006968C1F38101022944D00228C6F8608087
:101B500004D0FFF74DFA044638E034E0FFF748FAC6
:101B6000074604E0FFF744FAC01B02282BD8286878
:101B70008001F7D4206AB0F5803F05D16868A1687C
:101B800020F4003008436860D4E90801084369681C
:101B900021F4741108436860C6F86090FFF728FAD2
:101BA000044606E025E000BFFFF722FA001B0228EA
:101BB00009D828688001F7D51BE000BFFFF718FAA5
:101BC000001B022802D90320BDE8F88F2868800195
:101BD000F4D40EE00128F7D06868226A00F480315E
:101BE000914204D1616A00F47010884201D0012052
:101BF000EAE70020E8E7000000100240000042424F
:101C0000800442421000002000700040704770477E
:101C100070B590F83C20012A26D0012480F83C4081
:101C2000022280F83D2003685A689D6822F0700601
:101C30000A6832435A600D4B02689A4208D0B2F1EA
:101C4000804F05D00A4B9A4202D00A4B9A4204D1E7
:101C5000496825F080031943916080F83D400021D8
:101C600080F83C10084670BD022070BD002C014079
:101C7000000400400008004010B5040003D094F8B0
:101C80003D0010B107E0012010BD002084F83C00A9
:101C9000204600F01FF8022084F83D00211D206836
:101CA00001F062FB012084F8460084F83E0084F8CD
:101CB0003F0084F8400084F8410084F8420084F832
:101CC000430084F8440084F8450084F83D00002077
:101CD00010BD000008B500680B49884212D10B48BE
:101CE000C16941F00401C161C069002200F0040033
:101CF000009005211E20FFF7CBFCBDE808401E2008
:101D0000FFF7B8BC08BD000000080040001002400A
:101D100090F83D10012901D001207047022180F880
:101D20003D100168CA6842F00102CA6000680B49B0
:101D3000884208D0B0F1804F05D00949884202D0CE
:101D40000849884204D1816801F00701062903D0BF
:101D5000016841F00101016000207047002C014042
:101D600000040040000800400168CA6822F0010237
:101D7000CA6001680A6A41F211131A4207D10A6A5D
:101D80009B101A4203D10A6822F001020A60012165
:101D900080F83D100020704770B5044690F83C0074
:101DA0000025012817D0012684F83C60022084F821
:101DB0003D002068826822F0770222F47F42826030
:101DC0000868502838D00DDC20284FD005DC90B3AF
:101DD000102811D14AE0022070BD302846D040289A
:101DE0000AD13BE060282FD070280DD0B0F5805F7D
:101DF00003D0B0F5005F12D0012584F83D600020CB
:101E000084F83C00284670BDCB68D1E901212068E8
:101E100001F0F3FA2068816841F0770109E0CB68AE
:101E2000D1E90121206801F0E8FA2068816841F4D5
:101E300080418160E1E719E0CA684968206801F0E3
:101E400091FB5021206806E0CA684968206801F0CB
:101E50009AFB6021206801F0DAFACEE7CA68496887
:101E6000206801F07FFB40212068F4E722680146EA
:101E70001046F0E770472DE9F04104460068C66857
:101E800005694FF00007A90713D5B10711D5F91E51
:101E9000016101202077206880698007204602D0F8
:101EA000FFF7E8FF04E000F0BBF8204600F06AF915
:101EB0002777680716D5700714D521686FF00400DE
:101EC0000861022020772068806910F4407F204656
:101ED00002D0FFF7CFFF04E000F0A2F8204600F0A8
:101EE00051F92777280715D5300713D521686FF0EA
:101EF00008000861042020772068C0698007204618
:101F000002D0FFF7B7FF04E000F08AF8204600F0A7
:101F100039F92777E80616D5F00614D521686FF051
:101F200010000861082020772068C06910F4407F05
:101F3000204602D0FFF79EFF04E000F071F8204633
:101F400000F020F92777E80708D0F00706D02168CD
:101F50006FF001000861204600F064F9280608D5FA
:101F6000300606D521686FF0800008612046FFF733
:101F70004DFE680608D5700606D521686FF0400052
:101F80000861204600F064F9A8060AD5B00608D515
:101F900021686FF0200008612046BDE8F041FFF79E
:101FA00036BEBDE8F081000010B586B0002100917A
:101FB0000191029103910368154802210322B3F1B4
:101FC000804F15D0134CA34210D1836943F008030E
:101FD00083618069039200F0080004900120CDE93C
:101FE00000010D48694600BFFEF700FF06B010BDB6
:101FF000836943F0040383618069039200F0040065
:1020000004900F20CDE9000169460448ECE7000088
:102010000010024000040040000C01400008014094
:10202000704770B5044690F83C0000260D46012824
:102030000FD0012084F83C006AB1042A1DD0082A80
:102040002FD00C2A3FD00126002084F83C003046D7
:1020500070BD022070BD206801F0E2F9206881693E
:1020600041F0080181612068816921F004018161EA
:10207000206881692A69114311E0206801F0F8F9AC
:102080002068816941F4006181612068816921F4DF
:1020900080618161206881692A6941EA0221816148
:1020A000D2E7206801F010FA2068C16941F0080108
:1020B000C1612068C16921F00401C1612068C16962
:1020C0002A69114311E0206801F02AFA2068C169E9
:1020D00041F40061C1612068C16921F48061C1617E
:1020E0002068C1692A6941EA0221C161ACE710B5E3
:1020F000040003D094F83D0010B107E0012010BDAA
:10210000002084F83C00204600F01EF8022084F8ED
:102110003D00211D206801F027F9012084F84600C8
:1021200084F83E0084F83F0084F8400084F84100C1
:1021300084F8420084F8430084F8440084F84500A1
:1021400084F83D00002010BD08B501680B48B1F1CE
:10215000804F0BD00A4A914207D1C16941F0020178
:10216000C161C06900F00200009008BDC16941F082
:102170000101C161C06900F00100F5E700100240F3
:10218000000400407047000010B50446022249B127
:1021900004290ED0082913D094F84100012816D044
:1021A000012010BD94F83E000128F9D184F83E20AA
:1021B0000FE094F83F000128F2D184F83F2008E0B6
:1021C00094F840000128EBD184F8402001E084F825
:1021D00041200122206801F003F90F49206888425C
:1021E00003D1426C42F4004242642068884208D025
:1021F000B0F1804F05D00949884202D00849884291
:1022000004D1816801F00701062903D0016841F07B
:1022100001010160002010BD002C014000040040BD
:102220000008004010B5044600680749884201D103
:10223000FFF79CF905492068884203D1BDE81040AA
:1022400002F0D8B810BD0000002C0140000800408A
:10225000704718B5034690F84200202801D00220AC
:1022600018BD61B15AB101201863002058631846A7
:1022700001F038FB0028F3D1196B012901D00120AE
:1022800018BD19680A684968009119680C3151E84D
:10229000002F42F0100241E80024002CF5D118BDB7
:1022A0000068034A904202D1084602F0B7B870476E
:1022B0000048004070470000F8B50168044608680F
:1022C000CA684B6910F00F0F4FF0000559D003F0AA
:1022D000010602F49077374365D0C10705D0D105D8
:1022E00003D5616C41F001016164410705D5D9074F
:1022F00003D0616C41F002016164810705D5D90703
:1023000003D0616C41F004016164010707D502F05C
:102310002001314303D0616C41F008016164616CBC
:1023200000293AD0800604D5900602D5204601F057
:102330001CFA20684069616CC0F38010090700D462
:1023400060B3204601F0EAF920684069400621D5D3
:102350002068143050E8001F21F0400140E80012CE
:10236000002AF5D1E06BA8B16D494163E06BFEF73F
:10237000DBFC002811D0E06B416B01B0BDE8F04000
:10238000084783060FD593060DD52046BDE8F840D3
:1023900001F0EBB92046FFF78DFFF8BD2046FFF7AF
:1023A00089FF6564F8BD266B2023012E7CD1C6060B
:1023B0007AD5D60678D508684868009048694FF005
:1023C0000206400640D5E16B086840680004000C36
:1023D000E8D0A28D8242E5D9E085886920282DD0F9
:1023E00020680C3050E8001F21F4807140E8001292
:1023F000002AF5D12068143050E8001F21F00101B7
:1024000040E80012002AF5D12068143050E8001F7F
:1024100021F0400140E80012002AF5D184F8423052
:10242000256320680C3050E8001F21F0100140E8BF
:102430000012002AF5D1E06BFEF752FC6663A08D16
:10244000E18D401A81B22AE0A08DE18D401A81B25F
:10245000E08D0028A6D00029A4D022680C3252E8D2
:10246000000F20F4907042E80007002FF5D120689B
:10247000143050E8002F22F0010240E80027002F1E
:10248000F5D184F84230256320680C3050E8002FE5
:1024900022F0100240E80023002BF5D166632046AD
:1024A000FFF7FEFEF8BDFFE705062BD5150629D57B
:1024B00094F841002128F5D1A068B0F5805F01D1E2
:1024C0002069B0B1206A411C21622168007848600F
:1024D000E08C401E0004000CE084E3D12068C16859
:1024E00021F08001C1602068C16841F04001C160F5
:1024F000D8E7206A0088C0F308004860206A801C82
:102500002062E5E74006CDD55006CBD5CA68204607
:1025100022F04002CA6084F8413000F0EEF8C1E7D2
:102520000D37000870B5040004D094F84100002570
:1025300010B106E0012070BD84F84050204600F044
:1025400023F8242084F841002068C16821F4005158
:10255000C160204601F06AF92068016921F49041C8
:1025600001612068416921F02A0141612068C16848
:1025700041F40051C1606564202084F8410084F872
:1025800042006563002070BD70B586B000240094E1
:1025900001940294039403682B482A4E02210322DB
:1025A0000515B34221D1836943F480438361836974
:1025B00003F480430493836943F0040383618069D7
:1025C000224E00F0040004900802CDE900010392BD
:1025D00069463046FEF70AFCCDE9005469463046AC
:1025E0000294FEF703FC06B070BD194EB342FAD157
:1025F000C36943F48023C361C36903F48023049354
:10260000836943F0080383618069CDE9005100F0DC
:102610000800CDE903200F4D69462846FEF7E6FB8A
:10262000E814CDE90004694628460294FEF7DEFB73
:10263000002205212720FFF72BF82720FFF71AF8A3
:10264000D1E70000003801400010024000080140BE
:1026500000480040000C014070472DE9F843044653
:1026600090F84100984616460D46202802D00220D8
:10267000BDE8F88385B17EB100206064212084F834
:102680004100FEF7B5FCA6848146E684A0682027B9
:10269000B0F5805F02D003E00120E9E7206910B1C6
:1026A0002E4600250EE000260CE08021204601F099
:1026B00034F9A8B9C6B116F8010B21684860E08C5E
:1026C000401EE084E08C4B464FF00002CDF80080C5
:1026D0000028EAD14FF04001204601F01EF940B138
:1026E00084F841700320C3E735F8020BC0F30800FB
:1026F000E3E784F841700020BAE77047FEE701681D
:102700004A69D24352050FD46FF480624A610021B6
:1027100040F8301F202242738173026942F00402A4
:102720000261017301207047002070472DE9F84FC6
:102730000446006889460B9D01689846174641F497
:10274000806101602068016841F48071016000953A
:102750004FF0011B0022594620460A9B00F0E4F886
:102760004FF4007A40B120680068C00501D5C4F874
:1027700040A00320BDE8F88F216809F0FE00086141
:102780002B46284920460A9A00F016F9F0BB20682B
:102790004169806900902A4620460A9900F0A2F912
:1027A00040B1206C04283AD12068016841F40071DE
:1027B000016034E0FEB2B8F1010F09D02168380A97
:1027C00008612A4620460A9900F08CF90028E8D1D1
:1027D000206806612A4620460A9900F083F90028FD
:1027E000DFD12068016841F480710160009500220A
:1027F000594620460A9B00F097F80028B3D121687B
:1028000009F0FF0040F00100086100E007E02B46FE
:10281000044920460A9A00F0CFF80028AAD00120E7
:10282000A8E70000020001002DE9F8430446006813
:102830000D46DDE9089701689846164641F4807117
:1028400001604B4600224FF001112046009700F036
:102850006BF848B120680068C00502D54FF40070DD
:1028600020640320BDE8F883216805F0FE000861BC
:102870003B464A461549204600F09EF888B9206834
:102880004169806900903A464946204600F02AF99D
:1028900048B1206C042804D12068016841F400711B
:1028A00001600120DEE7F5B2B8F1010F09D021681F
:1028B000300A08613A464946204600F013F90028DC
:1028C000E7D1206805610020CCE70000020001008C
:1028D00070B516460D4604461EE02046FFF70FFF72
:1028E00008B1012070BD681C16D0FEF781FB801B6B
:1028F000A84200D885B920684069C04340070BD57D
:10290000002044F8300F20216173A073216941F049
:10291000200121612073E4E720684069C04340073B
:10292000DBD4002070BD00002DE9F0479846174623
:102930000D460446C1F30746DDF820902AE000BFAB
:10294000B8F1FF3F26D0FEF753FBA0EB090141454C
:1029500002D8B8F1000F1DD12068012E16D0806971
:1029600025EA00000004000C12D00020B84211D16A
:10297000002044F8300F20216173A073216941F0D9
:102980002001216120730120BDE8F0874069E7E75D
:102990000120EBE72068012E0AD0806925EA0000BB
:1029A0000004000C06D00020B842C9D00020EBE79C
:1029B0004069F3E70120F7E72DE9F047984616460E
:1029C0000D4604464FF000094FF0200AC1F30747B7
:1029D00023E020684069C043400515D420680168A1
:1029E00041F40071016021686FF480604861C4F8AF
:1029F000309084F83DA084F83E90216C41F00401B1
:102A0000216484F83C9021E0701C06D0FEF7F0FAB7
:102A1000A0EB0800B04203D816B1012F1FD021E06F
:102A20002068012F15D0806925EA00000004000C01
:102A300018D000BF44F8309F84F80DA084F80E90A1
:102A4000216941F02001216184F80C900120BDE84A
:102A5000F087406925EA00000004000CEAD12068F4
:102A6000406901E02068806925EA00000004000C4C
:102A7000AFD1ECE72DE9F041002590460E46044623
:102A8000202728E04069C043C0060CD454F8301B0E
:102A90006FF01000486144F810596777A577206AF5
:102AA0002062257714E0FEF7A3FAA0EB0800B042FD
:102AB00000D886B920684069C04340060BD544F869
:102AC000305F6773A573206940F020002061257393
:102AD0000120BDE8F08120684169C9434906D1D48D
:102AE0000020F6E770B516460D4604461EE0204667
:102AF000FFF705FE08B1012070BD681C16D0FEF777
:102B000077FA801BA84200D885B920684069C04385
:102B100000060BD5002044F8300F20216173A0730C
:102B2000216941F0200121612073E4E720684069B8
:102B3000C0430006DBD4002070BD000010B5044A7D
:102B40000021044801F0D4FD0349086010BD0000D5
:102B500004680008AD32000800000020F0B585B020
:102B6000002535480095019502950395816941F04E
:102B700010018161816901F010010491816941F0C6
:102B800020018161816901F020010491816941F096
:102B900004018161816901F004010491816941F0BE
:102BA000080181618069254E00F008004FF400544F
:102BB0000490002221463046FEF715FA204F0022ED
:102BC00080213846FEF70FFA00940124CDE9014533
:102BD0000225694630460395FEF708F980208DE806
:102BE00031000320039069463846FEF7FFF8154888
:102BF0000295CDE90050144D69462846FEF7F6F8D7
:102C0000202000901148CDE9010469462846FEF7CE
:102C1000EDF8002205210720FEF73AFD0720FEF718
:102C200029FD002205211720FEF732FD1720FEF7AF
:102C300021FD05B0F0BD0000001002400010014071
:102C40000008014000003110000C0140000021107C
:102C50000D4810B50B4901600C49416000214FF44B
:102C600080428160C0E9031241618161C1610162FA
:102C7000FEF7C4F9002803D0BDE81040FDF780BF7F
:102C800010BD000000540040FC000020A0860100A0
:102C900010B58AB0002407941C2168460894FDF7FB
:102CA000B8FA22484FF0804101604FF4E151C0E989
:102CB0000114C721C0E903148461FFF718FA08B1B1
:102CC000FDF75EFF079407A918480894FEF7A0FFD8
:102CD00008B1FDF755FF6020CDE900040294002201
:102CE000694612480494FFF79CF908B1FDF748FFC4
:102CF000042269460D48FFF794F908B1FDF740FF3B
:102D0000082269460948FFF78CF908B1FDF738FF3A
:102D10000C2269460548FFF784F908B1FDF730FF3A
:102D20000248FFF741F90AB010BD00005001002031
:102D300010B58AB0002407941C2168460894FDF75A
:102D400068FA16481449016041F61F41C0E90114B0
:102D5000C721C0E903148461FFF7C9F908B1FDF781
:102D60000FFF079407A90D480894FEF751FF08B11B
:102D7000FDF706FF6020CDE90004029408226946B1
:102D800006480494FFF74DF908B1FDF7F9FE034832
:102D9000FFF70AF90AB010BD0004004098010020B6
:102DA00010B586B00024184800940194029403944E
:102DB000049414490594016040F2CF21C0E9011444
:102DC0004FF6FF71C0E9031480218161FEF754FFC3
:102DD00008B1FDF7D5FE4FF48050009069460A48CF
:102DE000FEF7DAFF08B1FDF7CBFE049404A906480C
:102DF0000594FEF70DFF002801D0FDF7C1FE06B0D7
:102E000010BD000000080040E00100200C4810B593
:102E10000A4901604FF4E1314160002181600C22D8
:102E2000C160C0E904128161C161FFF77BFB00282A
:102E300003D0BDE81040FDF7A3BE10BD003801402F
:102E4000280200200C4810B50A4901604FF4E13116
:102E50004160002181600C22C160C0E904128161DF
:102E6000C161FFF75FFB002803D0BDE81040FDF70C
:102E700087BE10BD0048004070020020FEE7000041
:102E80001FB5124C4FF0FF3632466946206803F0FA
:102E9000DDF80128F8D19DF80000039901F06CFBE2
:102EA000019D07E0206802F064FA28B90A2002F0C8
:102EB0009FFB0A3D002DF5D19DF808000328E3D0C3
:102EC0000021084601F058FBDEE700005C0000200E
:102ED0001CB501F007FB00221021052002F0C0FE06
:102EE0000A49086050B100210220CDE900010B46DB
:102EF000802207A1094803F03BFA1CBD502080F353
:102F00001188BFF34F8FBFF36F8FFEE75C00002087
:102F10004D6F76655461736B00000000812E0008D0
:102F2000FEE7000010B50021074C0A46002004EB24
:102F3000C1131A54401CC0B28028FAD3491CC9B22C
:102F40000829F3D310BD000040030020F0B50B4466
:102F500024E0044685181DE07F2C19D8002917DBD2
:102F60003F2915DCCE1701EB56764FEAE60C0D4FE4
:102F700026F0070607EBCC172744A1EB060E97F8BF
:102F800000C0012606FA0EF62CEA060C87F800C0EF
:102F9000641C24B2A542DFDC491C09B28B42D8DC98
:102FA000F0BD00004003002010B501F0C1F9AE20D3
:102FB00000F0D6F8D52000F0D3F8802000F0D0F84B
:102FC000A82000F0CDF83F2000F0CAF8D32000F090
:102FD000C7F8002000F0C4F8402000F0C1F8A1209C
:102FE00000F0BEF8C82000F0BBF8DA2000F0B8F816
:102FF000122000F0B5F8812000F0B2F8CF2000F0E8
:10300000AFF8D92000F0ACF8F12000F0A9F8DB20EF
:1030100000F0A6F8302000F0A3F8A42000F0A0F8FB
:10302000A62000F09DF88D2000F09AF8142000F002
:1030300097F8AF2000F094F8FFF774FF00F07CF8E9
:1030400001490120087010BD680000200148007887
:10305000704700006800002010B50C4640F0B0003A
:1030600000F07EF8102040EA141000F079F804F027
:103070000F00BDE8104000F073B800002DE9F04FDC
:103080001F4616460D4682460024FFF75FFF7F1E4F
:10309000F81707EB50700121DFF898B001EBE0075B
:1030A00043E000203DE000BF0AEB00037F2B36D851
:1030B000E91705EB5171CA1021F00701691A002DBB
:1030C00003DA521E083112B209B202EB0409B9F157
:1030D000070F0ED8099A04FB06F802440BEBC91E31
:1030E00018F802201EF803C08A404CEA020C0EF8C1
:1030F00003C009F10102072A11D80BEBC91202EB38
:103100000308099A04FB06FC024498F880301CF876
:103110000220C1F10801CA40134388F88030401CE6
:10312000C0B2B042C0D3641CE4B2A742B9DCBDE86F
:10313000F08F00004003002070B5084D00240021EE
:103140002046FFF789FF05EBC410802100F014F83A
:10315000641CE4B2082CF2D370BD000040030020D0
:1031600001B582B04FF47A700090012302AA0021C9
:10317000782001F0EDF80EBD08B54FF47A72009298
:103180000B4602464021782001F0E2F808BD08B560
:103190000020009002226946432000F069F8BDF843
:1031A000000008BD7CB500208DF800008DF80400FB
:1031B000012201A900F0F1FB002401226946002050
:1031C00000F056F818B99DF80000202805D0641CBE
:1031D000E4B2052CF1D301207CBD234E234D002405
:1031E00006EB440116F814002870497869701F49ED
:1031F0000122491C00F0D1FB0028ECD1641CE4B290
:10320000322CEDD319490122091D0878287049781C
:1032100069701649491C00F0C0FB0028DBD1134936
:103220000122891D08782870497869700F49491C66
:1032300000F0B3FB0028CED10C49052208319320C1
:1032400000F0ABFB0028C6D10848084A801C0123C7
:10325000017829704078687042F210700090521C1A
:10326000E62001F075F87CBDD273000869000020EB
:1032700008B542F21073009313460A460146E72050
:1032800001F058F808BD00001FB58DF80000039349
:10329000054801918DF8082000231A466946006808
:1032A00002F076FD04B010BD5C000020012001F0AA
:1032B000E4F9FBE702480121406802F09DBB0000F1
:1032C0004C00002002480121406802F067BB00006A
:1032D0004C00002010B54FF0E020006903F0A0F88A
:1032E000012803D0BDE8104002F0A4BC10BD30B5E9
:1032F0008FB028216846FCF78CFF14210AA8FCF740
:1033000088FF01210804CDE9001000240294022561
:103310000491CDE907504FF4E01009906846FEF79C
:10332000E5FA08B172B6FEE70F20CDE90A054FF4C1
:103330008060CDE90C4002210AA80E94FEF7DAF96C
:10334000002801D072B6FEE70FB030BD7047000014
:103350000148FEF790BD0000B80200200148FEF7CA
:103360008ABD0000E0010020F0B50268194B1A4C3C
:103370001A4D4FF08047984205D0B84203D0A04282
:1033800001D0A84203D122F070064A683243984225
:1033900005D0B84203D0A04201D0A84203D122F404
:1033A0004074CA6822434C6922F0800222430260C2
:1033B0008A68C2620A688262984201D1096901631F
:1033C000012141610169C90703D0016921F00101AF
:1033D0000161F0BD002C01400004004000080040E5
:1033E00010B501F01F030121046A99408C43046267
:1033F000016A9A401143016210BD10B5846842EA27
:10340000032224F47F440A432243826010BD826871
:1034100022F070020A4342F0070181607047000009
:1034200030B5036A026A22F00102026242688469CE
:1034300024F073050C682C4323F002058B682B43A2
:103440000A4DA8420BD123F00805CB6822F4407244
:103450002B434D6923F0040315438A692A434260D4
:10346000846149684163036230BD0000002C014063
:1034700030B5026A036A23F010030362436884696B
:103480000D6824F4E64444EA05248D6822F0200205
:1034900042EA05120B4DA8420ED1CD6822F08002FF
:1034A00042EA05124D6923F4406343EA85038D69BE
:1034B00022F0400243EA85034360846149688163E6
:1034C000026230BD002C014030B5036A026A22F46A
:1034D000807202624268C46923F4007324F07305A9
:1034E0000C682C438D6843EA05230C4DA8420ED18D
:1034F000CD6823F4006343EA05234D6922F440526A
:1035000042EA05128D6923F4806342EA05124260A3
:10351000C4614968C163036230BD0000002C0140F2
:1035200030B5046A026A22F4805202624268C369BA
:103530000D6823F4E64343EA05238D6824F4005420
:1035400044EA0534064DA84204D14D6922F4804274
:1035500042EA85124260C36149680164046230BD79
:10356000002C014010B5036A046A24F001040462CF
:10357000846924F0F00444EA021423F00A020A43A6
:103580008461026210BD10B5036A046A24F010045D
:103590000462846923F0A00324F4704444EA0232F4
:1035A00043EA01118261016210BD0000FEB50A4EBE
:1035B00070CE8DE87000ADF80200ADF80410ADF8E3
:1035C00008300648ADF8062000235A1E69460068F8
:1035D00002F0DEFBFEBD00008868000860000020ED
:1035E0000EB51C4E4FF0FF373A466946306802F080
:1035F0002DFD9DF8000028B10128F5D100244FF4DD
:103600007A7521E0BDF9020001F044FEECE700BF4D
:10361000BDF9020001F03EFEBDF806004FF47A71DC
:103620004843B0FBF5F001F0E3FFBDF9040001F001
:1036300031FEBDF806004FF47A714843B0FBF5F057
:1036400001F0D6FF641CA4B2BDF80800A042CBD99B
:10365000DEE70000600000201CB500220A210420E3
:1036600002F0FEFA0D49086078B100F087FE5A209A
:1036700001F010FE00210220CDE900010B46C2013D
:1036800007A10A4802F074FE1CBD502080F3118887
:10369000BFF34F8FBFF36F8FFEE700006000002085
:1036A0007461696C5F7461736B000000E135000840
:1036B00010B501F0C5FEFDF71BFAFDF7E7F9FDF7C0
:1036C000DDFAFDF779FAFDF79FF9FFF701FCFFF747
:1036D000C3FF002001F0B2FFBDE8104001F0D0BEF2
:1036E0001CB505490120CDE900010202002303A118
:1036F000054802F03DFE1CBD640000206D61696E4E
:103700005F7461736B000000B136000810B5406A49
:103710000021C185C184FEF7CDFD10BD01680C31CB
:1037200051E8002F22F4907241E80023002BF5D1DC
:103730000168143151E8002F22F0010241E8002312
:10374000002BF5D1016B012909D101680C3151E839
:10375000002F22F0100241E80023002BF5D1202198
:1037600080F8421000210163704708B590F84210BC
:10377000222901D0022008BD82684FF480539A426A
:1037800001D1016921B1816A9A421BD04AB10AE094
:103790000268816A5268C2F308020A80816A891C41
:1037A00008E0026972B10268526802F07F020A7092
:1037B000816A491C8162C18D491E0904090CC185B9
:1037C00003D01BE002685268F1E70168CA6822F082
:1037D0002002CA600168CA6822F48072CA60016867
:1037E0004A6922F001024A61202180F8421000213A
:1037F0004163026B012A03D0FEF72EFF002008BDB3
:10380000016301680C3151E8002F22F0100241E8F9
:103810000023002BF5D101680A68D20602D50A6898
:1038200049680091818DFEF73BFDE7E770B50446DE
:1038300000680169E26821F4405111430161216986
:10384000A0680843616908432168CA6841F20C63B3
:103850009A430243CA6020684169A26921F4407119
:10386000114341611E492068884202D1FEF708F8E1
:1038700001E0FDF7F5FF00EBC00101EB001260680D
:1038800064218000B2FBF0F3B3FBF1F36FF0180694
:103890007343B2FBF0F5B2FBF0F605EB8305322380
:1038A00003EB0515B5FBF1F5B6FBF1F605F0F005F8
:1038B00005EB0615B2FBF0F6B2FBF0F0B0FBF1F051
:1038C0006FF01802504306EB800003EB0010B0FBD2
:1038D000F1F0216800F00F002844886070BD0000FE
:1038E0000038014081628285C28500214164222125
:1038F00080F84210016921B10168CA6842F48072FF
:10390000CA6001684A6942F001024A610068C16800
:1039100041F02001C160002070472DE9F84398462E
:1039200017460D460446089E24E0701C22D0FDF781
:103930005FFBA0EB0800B0421AD8CEB12068C16886
:10394000490717D5802D15D0402D13D00168C943E4
:1039500009070FD401680025406800902046FFF752
:10396000DDFE0820606484F840500120BDE8F88343
:103970000320FBE72068006835EA000004D000203F
:10398000B842D2D00020F1E70120F9E70148FEF764
:1039900093BC000070020020FEE708B542F21073ED
:1039A000009313460A460146E62000F0D1FC08BD0C
:1039B0000FB4054B10B503A9044A029800F0EAF8C9
:1039C00010BC5DF814FB0000F9450008F800002069
:1039D0000907090E002804DB00F1E02080F800143C
:1039E000704700F00F0000F1E02080F8141D7047D0
:1039F00002E008C8121F08C1002AFAD170477047B8
:103A0000002001E001C1121F002AFBD17047000015
:103A10002DE9FF5F82B00021DDE90430020DDDF801
:103A200040B0034318D044F61050A2F2FF32424394
:103A30001514119801281FD0A5EB0B00401C5FEA5C
:103A4000000A4FF000064E4FDFF83891B04650465E
:103A500015D5CAF1000413E0119801244AA30128E6
:103A600001D16FEA0B010298119AC0E90031C0E957
:103A7000024206B0BDE8F09FCBF10000DFE704464C
:103A80000021404A491842EB0450CDE9001012E0F1
:103A9000E00707D032463B4640464946FCF74CFD1E
:103AA0008046894632463B4610461946FCF744FD9F
:103AB00006460F466410002CEAD1DDE90401DDE979
:103AC0000023BAF1000F06DAFCF736FD42464B46FA
:103AD000FCF732FD05E0FCF7A1FD42464B46FCF742
:103AE0009DFD04460E460022284BFCF729FE03D814
:103AF0004FF0FF30014607E00022254B20463146BB
:103B0000FCF773FCFCF730FF102409E0002C0ADB03
:103B10000A220023FCF742FE039B30321A55641E32
:103B200050EA0102F2D1641C039AC4F11103144457
:103B3000119A012A03D0012208430DD10AE008435B
:103B400004D000204FF0110B119072E7A3EB0B058E
:103B50006D1E0DE05B4504DD4FF0000205F101052F
:103B600004E003DA4FF00002A5F10105002AECD0D1
:103B700002981199C0E90231C0E9004579E70000D7
:103B8000000014400000F03F300000000000F0434F
:103B90000000E03F2DE9FF4F95B09A468846064663
:103BA0000025EEE1252877D100242746F94A012196
:103BB000039400E0044316F8013F203B01FA03F0B0
:103BC0001042F7D130782A2811D06FF02F033078C7
:103BD000A0F13002092A16D8039A44F0020402EB3D
:103BE000820203EB42021044761C0390EFE758F880
:103BF000042B0392002A03DA504244F40054039049
:103C000044F00204761C30782E2816D116F8010FE5
:103C100044F004042A280DD06FF02F023078A0F170
:103C20003003092B09D807EB870302EB4303C718BE
:103C3000761CF3E758F8047B761C30786C280FD09C
:103C400006DC4C2817D068280DD06A2814D104E06F
:103C5000742810D07A280FD10DE044F400140AE043
:103C600044F4801401E044F440147278824202D19A
:103C700004F58014761C761C307866280BD013DC93
:103C8000582877D009DC002875D04528F6D046287A
:103C9000F4D047281AD193E118E0632835D064287E
:103CA00079D0652812D18BE1702873D008DC6728A1
:103CB000F1D069286FD06E280DD06F2806D1ACE006
:103CC00073282CD0752874D0782853D05246179971
:103CD00090476D1C54E1C4F30250022809D0032818
:103CE0000DD0D8F8001004280DD00D6008F104089C
:103CF00046E1D8F80010EA17C1E90052F6E7D8F813
:103D000000100D80F2E70D70F0E718F8041B8DF835
:103D1000001000208DF80100EB46012003E058F868
:103D200004BB4FF0FF3061074FF0000102D40DE0FB
:103D300009F101018946B9420FDA8145F8DB1BF828
:103D400009100029F4D108E009F1010189468142F6
:103D5000FADB1BF809100029F6D103985346A0EBB3
:103D6000090721463846179A00F080FA284400EBEC
:103D7000090507E044E008E10DE01BF8010B52469D
:103D800017999047B9F10109F7D2534621463846B1
:103D9000179AF2E039E00A21C4F302524FF0000B07
:103DA0000091022A06D058F8040BC117032A09D043
:103DB0000AE023E008F1070020F00702F2E8020120
:103DC000904605E000B2C117042A01D140B2C117E4
:103DD000002906DA0A460021404261EB02012D2249
:103DE00002E0220504D52B228DF80420012203E0F5
:103DF000E20701D02022F7E7914657E00A2100E0D0
:103E000010214FF0000B00910BE010214FF0000B40
:103E100044F004040827009103E008204FF0000B51
:103E20000090C4F30252022A05D058F8040B002176
:103E3000032A08D008E008F1070020F00702F2E8A2
:103E40000201904603E080B2042A00D1C0B24FF0D4
:103E5000000922072AD53278702A07D0DDF800C081
:103E60008CF0100C5CEA0B0C05D00EE040228DF8B3
:103E70000420012208E050EA010306D030238DF827
:103E800004308DF8052002229146009B83F0080340
:103E900053EA0B030AD150EA010201D1620705D5AA
:103EA00030228DF804204FF001097F1E3278582A05
:103EB00004D039A20C920CAA02920BE03BA2F9E7C3
:103EC0005B46009AFCF76AFC0C9B9B5C029A521EB4
:103ED0000292137050EA0102F2D1029804A9081A62
:103EE00000F1200B600702D524F4803400E00127A4
:103EF0005F4502DDA7EB0B0000E0002000EB0B01AB
:103F0000009003984944401A0390E00306D45346B6
:103F10002146179A039800F0A9F90544002706E006
:103F200001A85246C05D179990476D1C7F1C4F45F4
:103F3000F6DBE0030CD553462146179A039800F0B0
:103F400095F9054404E030205246179990476D1CBE
:103F50000099481E00900029F5DC08E002980299BB
:103F600052460078491C0291179990476D1CBBF18D
:103F70000001ABF1010BF1DC5BE100F065F90544F8
:103F8000761C307800287FF40DAE19B02846BDE8C5
:103F9000F08F0000092801003031323334353637D4
:103FA0003839616263646566000000003031323385
:103FB0003435363738394142434445460000000025
:103FC000600700D4062708F1070020F00700F0E89A
:103FD0000223804603F0004C5FEA0C0001D097A05A
:103FE00009E0200501D596A005E0E00701D095A0E5
:103FF00001E0AFF24C001390307823F000436528C5
:104000000CD006DC452809D046281DD047287FD192
:104010003BE0662818D067287AD136E00021112FBE
:1040200001DB112000E0781CCDE9000104A90CA8F7
:10403000FFF7EEFCDDE90D010C9A4FF0000B07F1E4
:104040000109109200914EE04FF000400097CDE939
:10405000011004A90CA8FFF7DBFCDDE90D020C9BA5
:104060000F994FF0000B91461093009211B9791CF3
:1040700000EB0109B7EB090003D4C0F1FF3B07F1E6
:104080000109A9EB0700019042E0012F00DA0127A6
:104090000021112F01DD112000E03846CDE900019B
:1040A00004A90CA8FFF7B4FCDDE90D010C9A0091FE
:1040B0004FF0000BB946109221070FD4009A4A45E1
:1040C00003DA914601E0A9F10109B9F1010F05DD1B
:1040D000109AA9F10101515C3029F4D0B84202DAFA
:1040E00010F1040F03DA0121CDE9011010E00028DE
:1040F00003DC8344A9EB000102E0411C494500DDDB
:104100008946A0EB0B00401C01904FF0004002904C
:10411000200705D40198484502DB4FF0FF3001909D
:1041200000208DF84B0002980DF14B07B0F1004FC5
:1041300025D002200C902B200D90029800280CDA3C
:10414000404202902D200D9007E00A210298FCF7D2
:104150000FFB3031029007F8011D0C99481E0C909E
:104160000029F2DC02980028EFD1791E0D98087022
:10417000307800F0200040F0450007F8020D11A84B
:10418000C01BC01D02901398007800B1012000EB05
:104190000901019801EBE071029801440398401A6B
:1041A000401E0390E00306D453462146179A039815
:1041B00000F05CF805441398007818B1524617993E
:1041C00090476D1CE00323D553462146179A039868
:1041D00000F04CF805441BE0BBF1000F07DB009832
:1041E000584504DD1098179910F80B0001E0179955
:1041F00030205246904701980BF1010B401E05F10B
:104200000105019004D12E205246179990476D1C4C
:10421000B9F10001A9F10109DEDC05E017F8010B95
:104220005246179990476D1C0299481E029000292A
:10423000F4DC53462146179A03989EE62D000000B1
:104240002B000000200000002DE9F041044600256D
:104250001E461746880404D405E039462020B0479E
:104260006D1C641EF9D52846BDE8F0812DE9F041AA
:10427000044600251E469046C80301D5302700E0BD
:104280002027880404D505E041463846B0476D1C18
:10429000641EF9D52846BDE8F081000010B592B043
:1042A00000211191402800D94020044602460F49C0
:1042B0000DF10200FBF794FF0D48ADF8004000231C
:1042C00011AA6946006801F013FE012801D0FCF72D
:1042D00057FC1198012806D1064900070860BFF372
:1042E0004F8FBFF36F8F12B010BD0000000300208E
:1042F0003000002004ED00E01346044AC2E9010149
:1043000013700A4601460248FDF7A3BF18000020BB
:104310007002002002480068002800D00047704763
:104320002C00002001490860704700002C0000208C
:10433000FEF78EBC3EB5069C8DE81C000A46014681
:1043400001230248FCF71EFF3EBD0000FC000020D8
:104350003EB5069C8DE81C000A4601460123024832
:10436000FDF73EF83EBD0000FC0000204FF4005178
:104370000148FCF730BE0000001001400821014850
:10438000FDF702BF9801002010B5044606480068FA
:10439000FCF7BCF92146FBF7ACFFFCF7BCF903497D
:1043A0000968C86310BD00002C040040980100207B
:1043B000024900200968486270470000E0010020BF
:1043C00001480068406A7047E001002010B5FDF721
:1043D00047FA06494968491CB0FBF1F1FFF7F0FFC5
:1043E000034A5043B0FBF1F010BD0000E001002093
:1043F00040420F0002480068002800D00047704784
:10440000140000200148FDF783BC0000E0010020FB
:104410000148FDF7A9BC0000E001002010B50A4CDE
:10442000E16801B18847207800280BD06168002935
:1044300008D0A068002805D082B2BDE8104003482B
:10444000FDF707BF10BD000018000020700200201B
:104450000149C860704700001800002013460A4652
:1044600001460148FEF7F9B87002002010B5064C6D
:104470002068002807D002210448FCF7A7FD216826
:10448000BDE81040084710BD28000020000C014086
:1044900001490860704700002800002038B50E4D23
:1044A0000446012280212846FCF79DFD0B480C495B
:1044B0000068B0FBF1F060430521B0FBF1F0009023
:1044C000411E009101D30846FAE72846BDE838406E
:1044D00000228021FCF787BD000801401000002069
:1044E00040420F0010B500210848FDF74DFE0421A1
:1044F0000648FDF749FE08210448FDF745FEBDE8E2
:1045000010400C210148FDF73FBE00005001002083
:1045100070B50D4617494FF080420C6868B1042809
:1045200015D00828D06A1CD0FCF7F0F82946FBF714
:10453000E0FEFCF7F0F8206470BDD06AFCF7E6F806
:104540002946FBF7D6FEFCF7E6F8606370BDD06A3B
:10455000FCF7DCF82946FBF7CCFEFCF7DCF8A0639F
:1045600070BDFCF7D3F82946FBF7C3FEFCF7D3F880
:10457000E06370BD5001002010B50C46052830D214
:10458000DFE800F02F03090F1D0021460020FFF790
:10459000BFFF00210AE000210846FFF7B9FF2146CE
:1045A00012E000210846FFF7B3FF21460420FFF781
:1045B000AFFF21460820FFF7ABFF00210CE02146AA
:1045C0000020FFF7A5FF00210420FFF7A1FF002135
:1045D0000820FFF79DFF2146BDE810400C20FFF7A3
:1045E00097BF00210846FFF793FF00210420FFF743
:1045F0008FFF0021DEE7000013B54FF47A7301222C
:1046000069460248FEF729F800981CBD28020020E0
:1046100008B50020009009486946006801F0C7FC11
:10462000002809D00098012806D105490007086034
:10463000BFF34F8FBFF36F8F08BD000058000020FD
:1046400004ED00E0FCF79AFFFEF751FEFEF786FA54
:10465000FEF7FEFAFEF71CFBFEF7F4FBFEF768FB25
:10466000FEF79EFBFEF7D2FBFFF73AF800F012F8D8
:10467000FEF764FA00F020F8FEE710B5EFF30581CD
:1046800011B16FF0050403E0002408B100F0B0FFA1
:10469000204610BDEFF3058010B16FF005007047A4
:1046A0000448016811B14FF0FF30704701210160EB
:1046B00000207047C800002010B5EFF3058010B14E
:1046C0006FF0050010BD08480168012902D04FF0C5
:1046D000FF3010BD054A002182F8141D022101603F
:1046E00001F0DEF8002010BDC80000200BE000E063
:1046F0002DE9FF414FEA01034FF00005EFF305817B
:10470000039549BB40B38027182100244AB316689B
:1047100006B1344696691EB13146761E382E02D255
:104720001679F60703D0002004B0BDE8F081566981
:1047300006B1B708D2F808C0BCF1000F0DD0D5689B
:104740005C2D18D312693AB136B18DE806103A469D
:10475000214601F03AFE03900DE0D6685EB9126979
:104760004AB903AACDE90012BAB2214601F000FE0F
:10477000012800D003950398D6E7000070B50446E1
:1047800030F8022B4C49FBF74FFDE0B34A49228831
:10479000891DA01CFBF748FDB0B3474922882A3980
:1047A000A01CFBF741FD80B3434922882439A01C9B
:1047B000FBF73AFD50B3404922881839A01CFBF79B
:1047C00033FD4FF07C5541F28836D8B33A49228800
:1047D0001239A01CFBF728FD002848D03649228852
:1047E0000C39A01CFBF720FD00284CD03249228850
:1047F000891FA01CFBF718FD00284CD02E492288E9
:104800001E39A01C03E008E009E013E019E0FBF703
:104810000BFD002847D029A025E029A023E02AA0ED
:10482000FCF7CCF8BDE870400523C8223C211E20CF
:10483000FEF7BCBE25A0FCF7C1F8BDE87040FEF74E
:1048400039BD00E006E024A0FCF7B8F8BDE87040F0
:10485000FEF738BD23A0FCF7B1F801222B46314604
:1048600010460BE022A0BDE87040FCF7A7B823A0DB
:10487000FCF7A4F82B46012231460220FEF704FD86
:104880000128EFD170BD20A0FCF798F801222B463B
:1048900031460420F2E71EA0FCF790F801222B46D7
:1048A00031460320EAE71CA0FCF788F80023012228
:1048B00031461846E2E700007C6800084552520085
:1048C00057414B45000000005741470053544152A7
:1048D0005420464F4C4C000053544F5020464F4CF0
:1048E0004C0000004D4F5645204657440000000044
:1048F0004D4F564520455252000000004D4F564541
:1049000020425744000000005455524E20520000EF
:104910005455524E204C000053544F50204D4F568A
:1049200045000000102814D008DC09280FD2DFE869
:1049300000F00E181A0E160E0E0E140020280AD0C3
:10494000402812D0802812D0B0F5807F11D00AA064
:1049500010E00BA00EE00CA00CE00EA00AE00FA0EF
:1049600008E010A006E010A004E011A002E013A0EF
:1049700000E017A0FCF760B94E4F4E450000000064
:10498000464F5257415244004241434B57415244D3
:104990000000000052494748540000004C4546546E
:1049A0000000000055500000444F574E000000002A
:1049B000434C4F434B57495345000000434F554E1E
:1049C000544552434C4F434B574953450000000058
:1049D00057415645000000002DE9F041134C0F46A9
:1049E0000546E6682068001D00F0B0FC681C07D191
:1049F00037B12168BDE8F0410D48091D00F014BD34
:104A000020683544B5424560216805D2A06BBDE8F9
:104A1000F041091D00F0F0BC606B091D00F0ECFCDA
:104A2000A06A854200D2A562BDE8F081780000202E
:104A3000300C00202DE9F041054600F001FD2D4C21
:104A4000A068401CA06020682B4F10B1606930B393
:104A50002BE02560A068012827D1002606EB860000
:104A600007EB800000F0BAFC761C382EF6D3234802
:104A700000F0B4FC2148143000F0B0FC1F4828308E
:104A800000F0ACFC1D483C3000F0A8FC1B48503046
:104A900000F0A4FC194860631430A06305E02068AE
:104AA000E96AC06A884200D82560606A401C60627A
:104AB0006864E86A2169884200D9206100EB8000BF
:104AC00007EB8000291D00F0AFFC00F0D9FC606905
:104AD00000280CD02068E96AC06A884207D20849D9
:104AE0004FF080500860BFF34F8FBFF36F8FBDE86A
:104AF000F08100007800002080070020E00B0020FB
:104B000004ED00E038B500F09BFC104C2068C8B9FB
:104B10000F4800F063FC0E48143000F05FFC0C48B6
:104B2000E060143020610A4B0020F03B009003F15C
:104B3000500210210A2001F0B4F8206010B105A144
:104B400000F020FDBDE8384000F09ABCB400002021
:104B5000340D0020546D72510000000030B4026C1E
:104B60000B46002A0BD0C1681144C1608468A14281
:104B700001D30168C16030BC1846FBF731BB30BCC3
:104B800070472DE9F041856B174604460026026CFC
:104B900082B1C7B1E068FBF723FBE168206C091A1A
:104BA000E1602268914202D2A168081AE060022FF7
:104BB00016D017E02068A8B9A06801F0A9FC064645
:104BC0000020A0600EE06068FBF70AFB216C6068C3
:104BD00008446060A168884204D32068606001E0F6
:104BE00005B16D1E6D1CA5633046BDE8F08110B5A2
:104BF000044690F8590058B101280CD002280FD073
:104C0000502080F31188BFF34F8FBFF36F8FFEE703
:104C1000206B00F049FC2046BDE8104000F044BC89
:104C200010BD00000F4842F21071420705D0C01DB0
:104C30000C4A20F00700821A891A0B4A002301440B
:104C4000C2E900030839183A21F0070111604B60EE
:104C50000B600B1AC0E9001393604FF000405360E3
:104C60005061704714140020E4000020144E154CCD
:104C7000A6F29C474FF08058DFF84C9012E000BF3E
:104C800000F0DEFBF068C568281D00F05FFBA0683F
:104C9000401EA0606068401E606000F0F1FB284686
:104CA000FFF7A5FF60680028EAD138680128F9D924
:104CB000C9F80080BFF34F8FBFF36F8FF2E700009A
:104CC0001C0C00207800002004ED00E070B51D46AB
:104CD000049C51B1C4F80020C4E90F010121204611
:104CE00001F012F884F84C5070BD2460F4E7000025
:104CF0002DE9F05F8846DDE90B9415468346910067
:104D00009A460A9EA522206BFBF77CFA6FF00301FE
:104D1000206B01EB8501084420F00707780707D0D6
:104D2000502080F31188BFF34F8FBFF36F8FFEE7E2
:104D30000025B8F1000F0FD05FF00000221818F81E
:104D4000001082F8341018F8001011B1401C10281F
:104D5000F4D384F8435001E084F83450382E00D363
:104D60003726E662C4E91365201D00F042FB04F11A
:104D7000180000F03EFB2461C6F138006462A061B7
:104D8000656584F8585052465946384600F070FA26
:104D90002060B9F1000F01D0C9F80040BDE8F09FD4
:104DA00030B5114900E011460A688242FBD34B68D6
:104DB0005C18844203D14068184448600846436840
:104DC0001C18944209D1084C183C2468A24209D00E
:104DD00052681A4442600A6812680260814200D038
:104DE000086030BD0460F9E7E400002070B50024DD
:104DF00041600B4D0061914206D8D11A82699142FF
:104E000006D2011D286907E09A4203D2994201D3D4
:104E1000012403E0011DE86800F0EEFA204670BDB1
:104E2000B400002010B5044600F00AFBA06B28B1C6
:104E30005FF0000400F024FB204610BD0124F9E7D8
:104E400030B589B03C4D6EE00498002806DADDE903
:104E50000601059A90470498002864DB069C606967
:104E600010B1201D00F072FA03A800F0D7F8024636
:104E700004980A2857D2DFE800F00505052D334ACB
:104E800005052D3394F8280040F0010084F828002F
:104E90000599A069059B01442046FFF7A7FF68B369
:104EA000216A2046884794F8280040073BD5002017
:104EB00000900598A169002342181946204601F088
:104EC0006DFCD8B9502080F31188BFF34F8FBFF32A
:104ED0006F8FFEE714F8280F20F00100207022E009
:104EE00094F8280040F0010084F828000598A0619B
:104EF00028B1811813462046FFF778FF13E05020B1
:104F000080F31188BFF34F8FBFF36F8FFEE794F8E4
:104F10002800810703D4204600F0C6FA03E020F001
:104F2000010084F82800002204A9286801F08EF806
:104F3000002889D109B030BDB40000202DE9FC4122
:104F40000F46054600F0F0FC01A800F067F80446A3
:104F5000019818B101F090FBBDE8FC81254EAFB17E
:104F600030690068D0B30027291B3A46306800F04A
:104F70001DFB01F081FB0028EED11F494FF080504E
:104F80000860BFF34F8FBFF36F8FE5E7A542EBD803
:104F900001F072FBF0682746C068C468201D00F06D
:104FA000D5F994F82800410719D5A0692B46411975
:104FB0003A462046FFF71AFFA8B1002003460146F3
:104FC00000902A46204601F0E9FB60B9502080F3AA
:104FD0001188BFF34F8FBFF36F8FFEE707E020F01C
:104FE000010084F82800216A20468847B4E7012799
:104FF000BAE70000B400002004ED00E00648416B71
:10500000096829B1416BC968C968496881627047FC
:105010004FF0FF31FAE700007800002070B5054638
:1050200001F00CFA064E0446B068844203D200F048
:1050300009F8012000E0002028602046B46070BD1F
:10504000B4000020F8B5194D20E0C068C4680668B7
:10505000201D00F07BF9216A2046884794F828003B
:10506000400713D5A0693044B04206D9246160607E
:10507000211DE86800F0C0F908E000200346014661
:1050800000903246204601F089FB38B1E86801689B
:105090000029DAD12969C5E90310F8BD502080F351
:1050A0001188BFF34F8FBFF36F8FFEE7B40000206E
:1050B00008484068401C4FF0500080F3118804D02D
:1050C000BFF34F8FBFF36F8FFEE7BFF34F8FBFF379
:1050D0006F8FFEE7EC0000200346002012B19943D9
:1050E00002D070470B42FCD001207047074CE068AB
:1050F000016841B1C0680021D0F80000FFF71EFF31
:10510000FFF79EFEF3E701210020F7E7B40000203F
:105110002DE9F041044600F093F994F9455004F16B
:10512000240609E0606A48B1304601F06DFA08B122
:1051300000F0D4FA6D1E6DB2002DF3DC4FF0FF3697
:1051400084F8456000F09CF900F07AF994F9445035
:1051500004F1100709E0206948B1384601F054FA1B
:1051600008B100F0BBFA6D1E6DB2002DF3DC84F8BF
:105170004460BDE8F04100F083B900002DE9F04142
:105180000546002700F0D0FB324E306808B9FFF723
:1051900049FD706905424ED1C5B3083568070ED088
:1051A00005F00700C0F108000544680707D050204B
:1051B00080F31188BFF34F8FBFF36F8FFEE72DB3DE
:1051C0007068854237D82348183001460C6801E0E2
:1051D00020460C466168A94202D221680029F7D115
:1051E00031688C4227D00768216801606068083701
:1051F000411B10290FD96019420708D0502080F3B5
:105200001188BFF34F8FBFF36F8FFEE713E041604C
:105210006560FFF7C5FD61687068401A7060B2682C
:10522000904200D2B060706901430020C4E90001DF
:10523000F068401CF06001F01FFA780707D050209A
:1052400080F31188BFF34F8FBFF36F8FFEE73846AF
:10525000BDE8F081CC0000200449086818B1086856
:10526000026D521C0265086870470000780000203B
:1052700010B5031F4FF080741C601B1F21F001014B
:105280001960191F024B0B60143940380A6010BDB9
:10529000B150000810B5B42801DDB42002E00028A8
:1052A00000DA0020FBF729FA0649FBF754F8064913
:1052B000FBF71FF80549FAF7C4FFBDE81040FFF7F8
:1052C00063B8000000003443CDCCCC3DCDCCCC3C09
:1052D00070B501282AD000282ED1FFF799F8FFF7E2
:1052E00075F8FBF713FA1549FBF703F84FF0FF3198
:1052F000FBF76FF8FBF70FFA114D04462868FBF730
:1053000005FA1049FAF7F5FF06462046FBF7FEF9C5
:105310000D49FAF7EEFF3146FAF793FFFBF7FBF979
:105320002860A860BDE87040FFF742B8FFF740F87A
:10533000BDE87040FFF766B870BD0000287E0C3DE8
:105340004C0000203333333F9A99993ED0E9013223
:1053500001699A60D0E901235A604A68824201D10A
:1053600082684A60002202610868401E086008687E
:10537000704710B5040006D000F062F8A46B00F08E
:105380007FF8204610BD502080F31188BFF34F8F67
:10539000BFF36F8FFEE70000044908680A68806960
:1053A000D26A0968C2F138028A6170477800002029
:1053B000034B036003F15C000860802010607047BD
:1053C0005C0D0020044B036003F15C0008604FF4A7
:1053D0008070106070470000B80F002000F10801D5
:1053E0004FF0FF32C0E90112C1600161002101608C
:1053F000704700210161704730B50B685A1C02D01C
:1054000000F1080202E0026904E0224654682568BF
:105410009D42FAD953684B6099608A605160086177
:105420000168491C016030BD42684A6093688B6026
:1054300093685960916008610168491C0160704778
:10544000502080F31188BFF34F8FBFF36F8F0A494D
:105450004868401C486001280CD10848006810F0DA
:10546000FF0F07D0502080F31188BFF34F8FBFF399
:105470006F8FFEE770470000EC00002004ED00E0B5
:105480000849486828B1401E486001D180F311885E
:105490007047502080F31188BFF34F8FBFF36F8F99
:1054A000FEE70000EC00002070B500282AD0164D61
:1054B000A0F1080460686969084207D1502080F3B0
:1054C0001188BFF34F8FBFF36F8FFEE722683AB1A9
:1054D000502080F31188BFF34F8FBFF36F8FFEE72B
:1054E0008843606000F020FA60686968084468607A
:1054F0002046FFF755FC2869401C2861BDE8704034
:1055000001F0BAB870BD0000CC0000204FF0E020E0
:1055100000210161816105494FF47A720968B1FB8C
:10552000F2F1491E4161072101617047100000201E
:1055300010B5FAF72FFE114910280ED300F1E02024
:1055400090F8F0030A78904207D2502080F3118837
:10555000BFF34F8FBFF36F8FFEE70948006889687C
:1055600000F4E060884207D9502080F31188BFF32F
:105570004F8FBFF36F8FFEE710BD0000EC000020DF
:105580000CED00E010B5084B002200BF53F832408C
:105590001CB1521C082AF9D310BD43F8321003EB9A
:1055A000C201486010BD00004007002070B51546DC
:1055B0000E460446FFF744FF94F944100020491CAE
:1055C00001D184F8440094F94510491C01D184F8B4
:1055D0004500FFF755FFA06B28B92A46314604F174
:1055E000240000F099F82046BDE87040FFF790BD18
:1055F00010B5020014D00F48006B38B1502080F372
:105600001188BFF34F8FBFF36F8FFEE700F08CF967
:1056100000211046FFF7E0F901F02EF8002807D12D
:1056200005494FF080500860BFF34F8FBFF36F8F75
:1056300010BD00007800002004ED00E070B50546C4
:10564000FFF7FEFE1E4C05B92568281DFFF77EFEFC
:10565000A86A18B105F11800FFF778FE606A401CCF
:1056600060622068854207D1291D1648FFF7DCFEDD
:105670006068401C606007E0A068401EA06028468B
:10568000FFF7B5FAFFF7BAFCFFF7FAFE60690028EA
:1056900014D02068854211D1206B38B1502080F39E
:1056A0001188BFF34F8FBFF36F8FFEE706494FF0AE
:1056B00080500860BFF34F8FBFF36F8F70BD000045
:1056C000780000201C0C002004ED00E002490A6A6A
:1056D0000260C968416070477800002001490120DC
:1056E000C86170477800002010B50C4650B10949D8
:1056F00009681831FFF780FE2046BDE810400121FF
:10570000FFF76AB9502080F31188BFF34F8FBFF3C2
:105710006F8FFEE77800002070B514460D4668B123
:105720000A4909681831FFF77FFE0CB14FF0FF35C9
:1057300021462846BDE87040FFF74EB9502080F35F
:105740001188BFF34F8FBFF36F8FFEE77800002003
:1057500010B51446030011D01048026BB2B10268B4
:1057600041F000419161016818461831FFF75CFE75
:105770002046BDE810400121FFF72EB9502080F3EC
:105780001188BFF34F8FBFF36F8FFEE7502080F378
:105790001188BFF34F8FBFF36F8FFEE778000020B3
:1057A00070B504003ED0226DA2B1E06C884200D3F7
:1057B0000146E06A884235D0012A33D11A4D2A6861
:1057C00094420FD1502080F31188BFF34F8FBFF365
:1057D0006F8FFEE7502080F31188BFF34F8FBFF328
:1057E0006F8FFEE7E162A269002A02DBC1F1380196
:1057F000A1610E4E00EB8000616906EB80008142E2
:1058000010D1201DFFF7A2FDE06A2969884200D966
:10581000286100EB800006EB8000211DBDE8704090
:10582000FFF702BE70BD0000780000208007002056
:1058300070B5194D2A6BF2B141F000410160C468A6
:105840000CB3FFF783FD201DFFF780FDE06A296997
:10585000884200D92861114900EB800001EB8000EB
:10586000211DFFF7E1FDE06A2968C96A884201D974
:105870000120E86170BD502080F31188BFF34F8F85
:10588000BFF36F8FFEE7502080F31188BFF34F8F77
:10589000BFF36F8FFEE70000780000208007002034
:1058A00030B587B00024039405AA04A903A8049482
:1058B000FFF77EFDDDE903010094CDE9011000232F
:1058C00015A11748059A00F080FD164D0028E862E2
:1058D0001FD000F033FF012809D0401C19D15020FF
:1058E00080F31188BFF34F8FBFF36F8FFEE7502017
:1058F00080F31188BFF34F8FBFF36F8F4FF0FF30EE
:10590000A86201206861EC6007B0BDE8304000F09B
:105910003DB907B030BD000049444C4500000000CF
:105920006D4C0008780000200248016B491C01639F
:105930007047000078000020164810B5016B11B1C7
:105940000121C16110BD0021C1610169124A01E05C
:10595000B9B1491E01EB810352F82330002BF7D077
:1059600001EB810302EB830202F1080453685B68D8
:105970005360A34201D15B685360DA680260016141
:1059800010BD502080F31188BFF34F8FBFF36F8F8E
:10599000FEE70000780000208007002070B50E466A
:1059A000040009D0300E0FD0502080F31188BFF3CF
:1059B0004F8FBFF36F8FFEE7502080F31188BFF346
:1059C0004F8FBFF36F8FFEE7FFF73AFD256825EA9B
:1059D00006002060FFF754FD284670BD70B52020FA
:1059E000FFF7CCFB040005D00025201D2560FFF744
:1059F000F5FC2577204670BD2DE9F041002788464B
:105A000004000AD05FEA18600FD0502080F311889C
:105A1000BFF34F8FBFF36F8FFEE7502080F31188E5
:105A2000BFF34F8FBFF36F8FFEE7261D04F10C0508
:105A3000FFF77AFF2168F06841EA0801216017E06A
:105A4000D0E9001601F07F425301236821F07F4125
:105A500002D40B4203D10AE031EA030307D1D20199
:105A600000D50F43216841F00071FFF7E1FE304699
:105A7000A842E5D12068B843206000F0FDFD206811
:105A8000BDE8F0812DE9F0479A46DDF82090904678
:105A90000D4604004FF0000709D0280E0FD050200B
:105AA00080F31188BFF34F8FBFF36F8FFEE7502055
:105AB00080F31188BFF34F8FBFF36F8FFEE71DB1E7
:105AC00000F0AEFC40B112E0502080F31188BFF32B
:105AD0004F8FBFF36F8FFEE7B9F1000F07D0502053
